:020000040800F2
:1060000008120020098400083F1809086F1A0A08BE
:106010004D4409083F1809083F1809083F180908A6
:106020003F1809083F1809083F18090851B10D0821
:106030003F18090888FF0D08E1B00D0895FB0D0811
:10604000E18000083F1809083F1809083F180908AF
:106050003F1809083F1809083F1809083F180908A0
:106060003F1809083F1809083F180908351A06089B
:10607000611A0608E12F0308911A06083F1809085B
:106080003F1809083F1809083F1809083F18090870
:106090003F180908698E00083F1809083F180908C9
:1060A0003F180908FD880008DD8800083F18090826
:1060B0003F18090899EE080845F908087D9F0D0862
:1060C000799F0D08D5F00808939F0D08819F0D0852
:1060D00015F90808859F0D0885F90808F1F90808E1
:1060E0003F1809083F1809083F1809083F18090810
:1060F000514109083F1809083F1809083F180908C5
:106100003F1809083F1809083F1809083F180908EF
:106110003F1809083F1809083F1809083F180908DF
:106120003F1809083F1809083F1809083F180908CF
:106130003F1809083F1809083F1809083F180908BF
:106140003F180908A5D400083F180908E9FA0D0806
:106150002DD308083F1809085F9F0D08659F0D089B
:106160003F1809083F1809083F1809083F1809088F
:10617000F0B5114A114C124E00F00105E3695F07BA
:1061800013D40DB9334213D103EA00078F4207D16C
:106190000B4A1A40002A0CBF00206FF00100F0BD2E
:1061A000013AEBD16FF00200F9E74FF0FF30F6E76C
:1061B0006FF00100F3E700BF8096980000000350E5
:1061C0000200010070B50B4BD96911F480310DD17B
:1061D00001244FF48072084E084DF46020462C6470
:1061E0001A61FFF7C5FF3464EC6070BD6FF0010009
:1061F000FBE700BF000003500010035000200350D5
:106200004FF4803238B50E4B0E4C9A66E56941F674
:10621000713315400122E3630B4B0021DA60022346
:10622000606121202361FFF7A3FF10B92120FFF750
:106230009FFF0122054BDA600DB10023E36338BDF7
:106240000090005000000350001003500020035045
:1062500070B5134C6061E3695B071ED40E4656F8B7
:10626000043B8D18A361AE420BD1042300212120F1
:106270002361FFF77DFF58B9BDE870402120FFF78B
:1062800077BF08210846FFF773FF10B1042323618D
:1062900070BD56F8043BA361E5E74FF0FF30F7E728
:1062A000000003502DE9F84315464FF48032184B97
:1062B00089469A6603F51C33DF690646174041F6A6
:1062C0007132DA63012203F58053DFF84C80DA6023
:1062D00055B9284601220F4BDA601FB10022A3F501
:1062E0000053DA63BDE8F88306F5005404EA0804B5
:1062F000A41BAC4228BF2C46494622463046FFF735
:10630000A7FF0028E6D12644A1442D1BE0E700BFEB
:10631000009000500020035000E0FFFF000000004C
:10632000000000000000000000000000000000006D
:106330002DE9F84F602200212948BDF08AFE48224D
:1063400000212848BDF085FE00209FED237B264BD1
:10635000264E274ADFF888B0DFF8ACA0DFF8AC9013
:10636000DFF8AC80DFF8ACE01E4FA3F1180C242559
:10637000002145430BEB401443E9054A0CEB0504AF
:1063800043E9039843F8181C43F804EC2177216291
:10639000182404FB007442F8144C164C013042F8E7
:1063A000104C154C032842F80C4C144C42F8181CA5
:1063B00042F8084C124CA6EC027B42F8044C114CFB
:1063C00043F8241B2C442177216242F8241BCED1B0
:1063D000BDE8F88FAFF3008000000000000000006F
:1063E0009CBE012054BE012000BE01205812002096
:1063F00094BD01204551010899450908B745090890
:10640000ED4509087CBD01206D510108BB45090817
:1064100081450908BF4509082DE9F043022089B0EC
:10642000D5F03CFF00B9FEE7654E336803B9FEE7DF
:106430001020D5F033FF3368624C9B880DF10B01BF
:106440008DF80B30012320681A46D2F0CDFF9DF85D
:106450000B203168023A0023096892B22068D2F01A
:10646000C3FF3368584993F829208DF8142000227F
:10647000CDE906121B681D7815F020051FD0206895
:10648000D2F0F2FC002851D02068D2F0EDFC65F08B
:1064900093FB02460B4646A1D1E9000165F030FDB1
:1064A00080460798894665F087FB02460B464046C2
:1064B000494665F045FA65F093FE0125079020688E
:1064C000D2F0E0FC9DF80B3098B3981DC00065F049
:1064D00083FB39A3D3E9002365F0E8FB80462068FD
:1064E0008946D2F0CFFC65F067FB02460B4640467A
:1064F000494665F005FD80460798894665F05CFBD6
:1065000002460B464046494665F01AFA65F068FEB9
:1065100007902020D5F0C2FE80B14FF48050D5F016
:10652000B1FF90F046FA09B0BDE8F0830798C0309B
:10653000C3E70798063300EB4310E9E7336805AF7C
:106540005A69FAB91020D5F0A9FE98B1079B3268B4
:1065500003F5FA73117E07931C4B99701C49097857
:10656000D970917900972A462068D2F0A9FA0028BC
:10657000D3D1D8E731683B462A4689792068D2F0E2
:1065800089FAF4E71969ADF810000A449621114818
:10659000A2F59B7281809979CDE90007039220686A
:1065A0002A4603ABD2F097FAE1E700BFAFF30080D1
:1065B0000000000060E366410000000080842E417E
:1065C000F4BF012050BF012020A10700A02203201A
:1065D000DE2C032094220320F7B50120D5F05EFEC7
:1065E0000446002840F0B1805B4D5C4B5C4EC5E931
:1065F000003005F11003AB6041F60B233060B3802F
:106600000FF094FF574B1B6ADB0700D4FEE72146CF
:1066100028467FF06DFA044600B9FEE780F086FE5A
:1066200000B1FEE72046504980F0C0F900B1FEE716
:1066300002212046D2F0F9FB00B1FEE720464B498B
:1066400080F05CFC00B1FEE701212046D3F08EF81B
:1066500000B1FEE701212046D3F09EF8074600B1C5
:10666000FEE701463C224248BDF0F3FC80233A4657
:10667000204605F11401D2F0CDFE802800D0FEE7BF
:106680003C4D0120D2F001FA31A3D3E900232C6064
:106690002046CDE900234FF0FF324FF0FF33D2F018
:1066A00084FC014600B1FEE72D480FF01BFA0121E2
:1066B0000846D5F0DFFD01212868D2F0D6FA04465D
:1066C00000B1FEE72C4B2D4A988018602C4B1A60C5
:1066D000FF2298802B4B83F828202B4A98801A6041
:1066E0002A4ADA6033790B2B11D873790A2B0ED929
:1066F000274B1E6006F060FE20460FF009FF0822BF
:1067000028681146D2F06BFC044608B1FEE7FEE7AC
:106710000FF0F6FE1F4B10211F481C7090F0A3FADB
:1067200000B9FEE71D491C4890F0AFFA00B9FEE73A
:1067300010218C201A4A8DF024FE00B1FEE7194882
:1067400003B0BDE8F040C3F02ABC03B0F0BD00BF09
:106750000AE020FFE203000060BF012049C50D08E8
:1067600058BF01200080E00F07001100BC200E0878
:1067700010BF012050BF0120E0120020004B02207A
:10678000B012002080120020804A022070120020E7
:1067900054BF0120824B022008C0012029FB0D08B4
:1067A000F8BF0120A8200E082DE9F04F2DED028B37
:1067B0000446C7B0CBF010FCD4F8C8300D90002BC5
:1067C0000EDA94F85520023A012A09D8D4E9331296
:1067D000521A002A04DDD4F8D420914240F0CE8130
:1067E0005E0309D4D4E93321914205D023F48022F9
:1067F0000023C4F8C8200EE00D99D4F820218A1A8D
:10680000D4F830118A4256D2DD0323F480225CD4BE
:106810000123C4F8C8200E9300239FEDAB8BCDE974
:106820000A33D4F8C830980507D5D4E934239B1A25
:10683000002B02DA20469AF01AF9D4F80831D4F87D
:106840000071A34A9F42A8BF1F4694F85530D4F860
:10685000D480D65C00239F4A1393D4F8C830D4F870
:10686000CC9032EA030305D1204613A99AF0E6F84A
:10687000824668BB4FF0000A5546A8EB0909CDF8DF
:1068800018A0D4F8C830190548BF46F001065A05CB
:1068900048BF46F0020604F108021B0205924ED5DD
:1068A000002F44D110469AF0A3FE484501D926F0A6
:1068B0000106012743E0884A126B002AA4D004F5A0
:1068C000F4709047D4F8C8309EE742F480228FE7F6
:1068D000D4F80021D4F80831139D41689A42D4BFFE
:1068E000C5EB0205C5EB0305D4F818218368881AA7
:1068F000002825EAE57515DD991A0029BADAD21AB9
:10690000954228BF1546D4F8CC20B3EB020904D534
:106910004A467249724877F011FF2B1E18BF0123B7
:106920000693AEE7C91A8D4228BF0D46EBE7002259
:10693000042120462AF062FA0023C4F84031069B65
:1069400053B9139B0598CBB99AF052FE874294BF76
:10695000C9EB0705C9EB0005B007D4F8C8305DD511
:10696000D4F8D420D4F8CC10521A002A27DD94F899
:106970005520032A1ED026F002061DE09AF038FEAC
:10698000D4F80031984294BFC9EB0005C9EB030568
:10699000002DE1DD139AD4F8D0319B1AD4F80821E8
:1069A0001344D4F8D4209B1A23EAE3739D42A8BF72
:1069B0001D46D1E7002BDEDB09F1FF390135B107B8
:1069C0002CD51A0724D4002B2CDAD4F84031002B14
:1069D00026DDDFB994F85530032B17D905989AF0C6
:1069E00007FE484512DD022120463A462AF006FA03
:1069F000D4F8CC3004212046C4F84071C4F8D43017
:106A00009AF02BF910B9204629F0C6FB00250BE0BF
:106A1000002B26F00106DCDA0025D6E7002B01DA90
:106A20007307D6D4002DD4DD069BD4F8CC702BB3DD
:106A3000DAF8088005989AF0DBFDA8EB0708A8446F
:106A400004F11803A8EB0008B8F1000F18460993E9
:106A5000B8BF26F001069AF02AFCD4F8C830834665
:106A6000002D00F09180D4F83421AA4209D8D4F83E
:106A7000FC3143F00403C4F8FC3189E0D4F8D4803D
:106A8000D8E7DF030CD5D4F8C83018022AD5D4F8DB
:106A90003421D4F8FC31AA42E9D923F00403EAE70F
:106AA0000E9A03F004031343EDD005989AF0A0FD6D
:106AB00009EB05038342E6D3D4F8C830D904E2D405
:106AC000E5E700BFAFF30080000000000000000019
:106AD000F09D0E080002100024990E08B09D0E08CB
:106AE000189D0E08D4E956024FEA500C4CEAC27CBD
:106AF000E91757086545B94101D30243C7D1D4E925
:106B00003412521A002AC2DB069A002ABFD1BBF106
:106B1000000F74DCDA07BAD47107B8D4B00701D516
:106B2000590576D5D4F8CC10D4F8D820521A002ABA
:106B30006FDCF20705D5DF066BD5D4F8D42091427F
:106B400067D0980540F19980D4F8D0305B1A002BBB
:106B500040F39380022120469AF07FF8002840F00D
:106B60008C80042120469AF078F8002840F0858037
:106B700002212046D4F830212AF040F9002047B005
:106B8000BDEC028BBDE8F08F002838DCDF076DD547
:106B9000D4F8C8308DED228B190700F1588116F01A
:106BA000020740F08480DA0540F1D080CBF016FA7D
:106BB000D4F8883103442493D4F880312593229B60
:106BC00043F010032293D4F8C830990540F1C180F6
:106BD000002F40F0A58094F85530032B40F2B98087
:106BE000D4F89C21002A40F3B480229B8DF8A72082
:106BF00043F08003229304F5D0732693A9E040F27A
:106C00000241D4F8C830194006D0D4F8C830D807AB
:106C100030D5002DBCD03AE794F85530092BF4D884
:106C2000D4E93B204FF6FF7394F87EC1821A03FA31
:106C30000CF35B45A8BF5B46002AD6BF0A469F1AE5
:106C40001F4642FA0CF243FA0CF39A42DDD0D4F814
:106C50003431B7EB430FDCDA09989AF02CFB0028AB
:106C6000B8BF0330B7EBA00FCFDBD2E772077FF5D9
:106C700055AF8DE77707CCD450E705989AF0B8FC6C
:106C800000283FF47BAF0221204699F0E6FF002860
:106C90007FF474AF0421204699F0DFFF00287FF4D1
:106CA0006DAFC4F84001204629F076FA66E7D4F8C3
:106CB000E4302046C4F8D43029F05CFA00230122E5
:106CC000CDE92223D4F8C830ADF8A400002B13DAA4
:106CD000D4F8402182B994F85520032A25D10822FE
:106CE00040F2011000218DF8A82004F502722892CC
:106CF0000122CDE922010B92980603F4807107D599
:106D000094F87F218DF8A620229A42F00202229266
:106D100000297FF44BAF1A063FF548AF980518D508
:106D2000229B43F00403229313E0022AE4D1D4F817
:106D3000002240F201108DF8A82004F50272002113
:106D400028920122CDE922010A92D4E799053FF564
:106D500042AF2DA922A829F057FAD4F8C820074637
:106D6000002A00F13C0306DA0B9A22B1229A02F4BF
:106D70008071D2056ED5D4F81C21E919914270D8E2
:106D80002B44B3F5803F67D2069B20680F93CBF06E
:106D90000DF9089078B107F1140815FA88F11FFA77
:106DA00088F389B210938EF08EFE002871D0089976
:106DB0002068CBF008F9002369270693D4F8C8307F
:106DC0001A0200F19A81B307D4F8D41040F0BC81C4
:106DD000069B002B40F0CC81D4F8D430D4F8D020DE
:106DE0002B449A1A002AC4F8D43007DDC4F8D030F6
:106DF000D4F8283113B90D9BC4E94A310221204649
:106E000099F02BFF30B9D4F8D420D4F8CC309A4282
:106E100040F0BA81002D40F0CA8105989AF0E8FB55
:106E2000002800F0C4810221204699F016FF0028B6
:106E300040F0BD810421204699F00FFF002840F06A
:106E4000B6812046C4F8405129F0A6F9AFE13C23B1
:106E5000002790E70D468EE7B749B84877F06EFCFB
:106E600092E7D51B2B44B3F5803F03D3B249B34817
:106E700077F064FC002D05DB0A9B26F00106C3F1C8
:106E8000010382E740F25332AB49AD4877F056FC3C
:106E9000F2E74DB305989AF0ABFB17AB029316AB34
:106EA000019315AB2A46494611900093059814ABFF
:106EB0009AF07AFB079008988EF01FFE08EB00030B
:106EC0000C93079B13B19F4877F038FCDDF8508096
:106ED000169B1A68424540F09980119A09EB050308
:106EE000934208BF46F00806204637AA18A999F031
:106EF000EAFDF3070BD5D4F8C830D80607D5D4E996
:106F00003423934204BF03F1FF33C4F8D43094F820
:106F10005530022B40F09A80D4F84031002B01DD2F
:106F2000032B01DC46F0C006069B002B40F0CA8014
:106F300006F003032B4300F0BB80D4F8D400CBF061
:106F40009FF83890D4F8EC00CBF09AF839904FB114
:106F50003A461437BF082DA93CA83F01BCF031FFC9
:106F60008DF8E87009988DF8E9609AF0A4F9BBEB08
:106F7000900F05DAD4F834315B45C8BF4FF0000BF1
:106F8000D4E93B239B1A002B02DD9B45B8BF9B46EF
:106F90004FF6FF7794F87E3107FA03F29345A8BFC6
:106FA0009346B10740F19E8009989AF084F9B8425F
:106FB000A8BF384680B2CBF060F8D4F8C830ADF83E
:106FC000EA00002840F0918043F40023C4F8C83060
:106FD000D4E93530C01A002840F38A8080B2CBF063
:106FE0004CF89DF8E930ADF8EE0043F020038DF841
:106FF000E9300021109B37AA08988EF042FD0899CD
:10700000206818AACAF0E2FF0027D7E6D8E90121D4
:1070100007911499414504D1159907980A44411ADA
:107020000791434504BF179B0799089804BFCB1AE3
:107030000793BDF81C30BDF830108EF022FD0C9B7C
:10704000079AD8F8008013440C9341E7032B07D12B
:10705000D4F8C83013F0806F18BF46F0400663E7DD
:10706000042B7FF461AFD4F8C83059017FF55CAFD1
:10707000002D0FDDD4E93412521A002A0ADB1A025D
:1070800001D5012D06D002219DF8852061F3010272
:107090008DF88520180144BF23F00063C4F8C83080
:1070A000D4F8C83048BF46F0800613F0805FD3E7BD
:1070B0000421204699F0D1FD00287FF43EAFD4F89A
:1070C000D0003CE7DAF80800CAF0DAFFDAF8083056
:1070D00038902B44CAF80830D4F8D8312B44C4F87F
:1070E000D8312FE74BFA03F064E723F400236DE770
:1070F000D4F8CC30C4F8D8307BE70421204699F08E
:10710000ACFD00283FF45FAEB30754BF2946691CAD
:10711000F00741BFD4F8C830013143F01003C4F880
:10712000C830D4E93432D31A0B44002BC4BF5219EF
:10713000C4F8D0203BE000BFB09D0E083F9D0E0874
:10714000569D0E08679D0E08B00744BF4B1CC4F83F
:10715000D430F2077FF53CAED4F8D4300133C4F814
:10716000D430D4F8C83043F01003C4F8C8302FE648
:107170000221204699F071FD00287FF44BAED4E93E
:1071800034329A423FF43FAE0421204699F065FD27
:1071900038B100220421204629F030FE0023C4F833
:1071A000403102212046D4F8302129F027FED4F8BE
:1071B000C830002F3AD01A0219D4B3071ED50221C5
:1071C000204699F04AFD50B90421204699F045FD2A
:1071D00028B902212046D4F8302129F00FFED4F836
:1071E0003431C4F808310023C4F80C31C6E404215A
:1071F000204699F032FD0028DFD0E0E7069B7BB106
:10720000DAF808305B1BCAF80830D4F8D8315B1BB9
:10721000002BC4F8D831D2DA164877F08FFACEE7CF
:10722000D4F8D4305B1BC4F8D430C8E7BBF1000FEE
:10723000D4F8EC1008DBD4F8F0200BEB0100821A34
:10724000002AC8BFC4F8F00023F00303C4F860119B
:1072500020460121C4F8C83099F0FFFC20B100227B
:107260000121204629F0CAFD0F9B002B7FF4D9AAEB
:1072700084E400BF899D0E082DE9F04F2DED028BAF
:10728000884204460D4690461E4697B00AD10346F2
:1072900001211D202E4A17B0BDEC028BBDE8F04F36
:1072A000B0F07BB99FED288B0DF10C092A214846DF
:1072B00005AF3FF04BFA99E8030087E80300DFF8D9
:1072C00094A0DFF894B0BDF81620BDF814309A42AF
:1072D00004D117B0BDEC028BBDE8F08F38463FF00B
:1072E00011FA0AAB814696E8030083E8030009AB74
:1072F00008938DF824408DF825508DF82680CDF820
:107300001CA036F08DFB00230E938DF840308DF8D5
:1073100051302A23ADF830904FF001090D930CAA9B
:107320006B4607A98DED128B8DF85090A1F02AFCC9
:10733000034620B15A4649461D20B0F02EF9384682
:10734000A6F0C1FFBFE700BF000000000000000082
:10735000D8E20E08E4E30E0818E30E08000000006F
:107360002DE9F0472DED028B9FED2B8B9CB00DF19D
:1073700008082A21054604AC404616461F463FF041
:10738000E5F998E8030084E80300DFF89480DFF86B
:107390009490BDF81220BDF810309A4204D11CB070
:1073A000BDEC028BBDE8F08720463FF0ABF926A983
:1073B00031F8083B0DF1380C8246ADF830300FC97A
:1073C0008CE80F0008AB0793CDE90A670895CDF864
:1073D000188036F025FB00232A228DF858308DF8CE
:1073E00069300223ADF848A04FF0010ACDE913231C
:1073F00006A96B4612AA8DED188B8DF868A0A1F036
:10740000C1FB034620B14A4651461D20B0F0C5F8E5
:107410002046A6F058FFBCE7000000000000000076
:107420000CE40E086FE30E082DE9F04F2DED028BF2
:10743000083085B00F469146DDF85080B0F0D0F8A6
:107440000446002800F09A806E4600259FED4E8B82
:107450004FF0010B41F2A45A10AB0FCB86E80F009E
:107460004B4BC4E902552360C4E90455C4E90655F1
:107470002C336360474B04F1480C0FCB84ED0E8B2B
:10748000C4E90C5584F8205084F840508CE80F0073
:10749000414B84F858B0A4F85AA0E56584ED188BE8
:1074A000A36604F17C03C4E91F333C4B1022C4F8EB
:1074B00090302946C4E91B55C4E9255584F8745019
:1074C000C4F88450C4F89C5004F1A000BCF0C1FD85
:1074D00084ED2E8B84F8B0B0A4F8B2A0C4F8B450F8
:1074E00004F1C000B0F0AAFD4AF6C873C82284EDCA
:1074F000368B84ED388BC4E93A2304F58273C4E9F2
:107500003E55C4E94133A4F8CC5084F8CE50A4F8D9
:10751000D05084F80051C4F80C513B68A3607B68DC
:10752000E360BB682361FB6863613B69A3617B69BE
:10753000E3613B7E84F8203033B104F1240307F18A
:107540001C0207CA83E8070038469BF0EAFDA8B989
:10755000B9F1000F12D0B8F1000F0FD003CE33787D
:10756000C4F8309084F84030012384F8F830231DAB
:10757000A063E163C4F88880C4F89C30204605B05D
:10758000BDEC028BBDE8F08F0000000000000000A1
:1075900004020F0870F30120CCBF0F08F4010F089C
:1075A0002DE9F04F2DED028B00240025CBB099463C
:1075B000CDE92E450023CDE93045CDE934454FF6E0
:1075C000FF74DFF898A2064688461746CDE90C33CB
:1075D0008DF8C8303393CDF8D8A04894A2B30546AF
:1075E00000F53474A54206D10B2420464BB0BDEC07
:1075F000028BBDE8F08F28469BF0B8FE08B19035AD
:10760000F0E79FED8F8BBDF85C318DF8C880ADF849
:1076100020318D4B4FF4C8710E93002309A8CDE99A
:1076200009330F93CDF870A00B939DF0CDFE099C0C
:1076300014BB0B240BA89BF050FC0AA89BF04DFC3C
:1076400009A89BF04AFCD0E7A9F0E8F8044608B97D
:10765000AC24CAE706F5347528469AF0BEFBB4F8A8
:1076600082308DF8C880ADF8203121460CA894ED09
:10767000028BA9F040F8CCE74FF4C8710AA89DF03E
:10768000A3FEDDF828A0BAF1000FD2D04FF4C871E4
:107690000BA89DF099FE0B9A002ACAD04FF4C8732C
:1076A0004146CDE91332304610AA1094CDE9113A83
:1076B0001593A9F013F904460028BBD14146304682
:1076C00012AAA9F0EDF804460028B3D1414630468D
:1076D00014AAA9F0C2F804460028ABD110A916A834
:1076E0009DF068FE12A918A89DF064FE14A91AA8BE
:1076F0009DF060FE36AB079330AB05930DF1B80AF1
:1077000034ABCDE903A30DF1700B0EAB8DED008B07
:10771000CDF818B002931AAA18A916A843F036FC9F
:107720000446002886D10BA89BF0D7FB0AA89BF043
:10773000D4FB09A89BF0D1FBB9F1000F13D1D6F807
:10774000640300285ED003689B6898470346D6F818
:107750006403002B4ED003685A4641465B69984744
:10776000044688B141E7D9F8003048465B6998473C
:107770005946A9F0A6FB08B9C52436E79DF858314B
:10778000CDF8CC908DF822319DF860315146B3FA96
:1077900083F328465B098DF82331A9F016FB0446D4
:1077A00000287FF422AF28460CA9A8F0E9FF06F5CF
:1077B0005D7495F881303FB302211120234AAFF068
:1077C000ECFED5E900122B69CDE9012100936B692C
:1077D000022111201E4AAFF0E0FE20460F9945F02D
:1077E0008FFB034630BB96F88233013386F8823331
:1077F0000024FAE603684146DB6898470028C3D1B5
:107800001024F2E60324F0E6D5E900121120CDE9B8
:10781000002102210F4AAFF0C0FE20460F9945F02B
:107820006FFB03460028E3D0012111200A4AAFF084
:10783000B4FEDDE701211120074AAFF0AEFED2E72A
:107840000000000000000000644A0F0890490F0883
:10785000B0490F08F3490F08284A0F08EC8B0F08AE
:107860002DE9F0478AB00DF10D030193152306466B
:1078700000934FF48072002308460C46AEF0AFFD33
:10788000E8B996F892300122009320460023AEF02A
:10789000A8FCA0B996F8933002220093204600235A
:1078A000AEF09FFC58B90DF10E030193162303228D
:1078B000009320460023AEF092FD054610B10AB0B9
:1078C000BDE8F0874FF0100906F1C8070DF1180860
:1078D000102200214046BCF0BCFB0DF10F030193C8
:1078E00015234FF48072009320460023AEF077FDFD
:1078F0000028E4D196F89320EBB29A4251D917EDC3
:107900000C7BC44637F828ACA7F12603A7F1160E66
:10791000624618685968083303C273459446F7D124
:107920008DED007B042200232046AEF035FC0028BC
:10793000C5D1052200232046CDF800A0AEF051FCB1
:107940000028BCD14046494606228DE803000023AA
:107950002046CDE90489AEF015FE0028AFD12046BF
:107960009DF90F10AEF070FD013530370028A6D11B
:10797000032DADD120469DF90E10AEF065FD002817
:107980009DD1B6F88A300722009320460023AEF03E
:1079900028FC002893D120469DF90D10AEF054FD2F
:1079A0008DE782469FED027BBAE700BFAFF3008010
:1079B0000000000000000000054B18680368D9694A
:1079C00001A3D3E90023084700E0373B015D030032
:1079D000A8260320000000002DE9F0412DED028BC8
:1079E000674CDFF8CC8163780646D8F8007082B027
:1079F0002071002B00F0AD80624BA5781B78002B26
:107A000072D007EE900AB8EE677ADFED5F7AE5880C
:107A1000C7EE278A002D64D007EE905AF8EE677AF9
:107A200017EE900A64F0EAF8E62D47D80022574B8B
:107A300063F084FF4CA3D3E9002364F061FA64F09F
:107A4000EFFB08EE100A022F0DDD2A46504951487F
:107A5000B6F030FCD8F80030022B04DD32464C4939
:107A60004D48B6F027FC2378042B02D1002059F0B2
:107A7000F3F818EE100A64F0C1F802460B46002035
:107A8000464963F05BFF044618EE900A0D4664F029
:107A9000B5F802460B462046294664F007F964F023
:107AA000BFFB00EE100A59F09FF828EE880A02B0DA
:107AB000BDEC028BBDE8F04159F0B2B82CA3D3E97C
:107AC000002363F03BFF2CA3D3E9002364F018FAF2
:107AD0000022334B64F0EAF80022314B63F030FFB0
:107AE000ADE79FED308AAEE74FF4B4735D43FE23FC
:107AF000022FB5FBF3F506DD00902A46E378244912
:107B00002948B6F0D7FBABB208EE103A2378042B25
:107B100018D1002059F0BEF8002059F0D1F823798F
:107B2000B8EE480A01EE103AE378B8EE411A00EEDA
:107B3000903AF8EE600A02B0BDEC028BBDE8F0416D
:107B400059F01CB8022BEAD002B0BDEC028BBDE8A4
:107B5000F081022FF8DD0E49144802B0BDEC028B13
:107B6000BDE8F041B6F0A6BB0000000000C06140D7
:107B70000000000000E06C400000000000E06B40EE
:107B8000C4480220D301032000007E43004063402C
:107B9000C8C80F0886C90F08A4C90F080000F03F25
:107BA0000000E03F00000000BCC90F08FCC90F083E
:107BB000AC26032000000000002370B5404C0546B1
:107BC0008AB0E36318B1008823606BF0C3FE3D48C0
:107BD000D1F0E7F83C4E3D4B304633603C4B736090
:107BE00067F0CAF9002130467DF082FF32A3D3E965
:107BF0000023A062C4E90623BFF02CFED4E90623CB
:107C000019431043C4E90601CDE900014FF0FF33E9
:107C10004FF0FF32A06AD1F0C8F902224FF0FF31D5
:107C2000A06AD1F0DCF901206BF0F4FB4FF4007393
:107C300000222849A06AD1F0EDFBB0F5007F39D1D0
:107C400000239422079309933C23CDE90332059343
:107C5000962306935023A06A03A908937EF012FC92
:107C600035B3287C6CF062F90546F0B9A06AD1F012
:107C7000DBFD6CF009F96BF0AFFB20B14FF48070C5
:107C8000002169F0E9FB6BF0B7FB20B14FF4006015
:107C9000002169F0E1FBBFF0C0FE0120D0F0F5FE4D
:107CA0000D4A0E49A06ABFF0C9FD28460AB070BD52
:107CB000FF20D7E70725F8E70DD501552000000084
:107CC00070770120690345EC9C3E02204D32070885
:107CD000AC3E02209C3C0220E5770C0825780C087D
:107CE0000348044B834202D0034B03B1184770474B
:107CF000602E0320602E032000000000064B074981
:107D0000C91A891048BF0131491003D0044B0BB187
:107D100001481847704700BF602E0320602E0320E3
:107D20000000000010B5064C237843B9FFF7D8FFD8
:107D3000044B13B10448AFF300800123237010BD3E
:107D4000344902200000000000E0100808B5054B8F
:107D50001BB105490548AFF30080BDE80840FFF7B7
:107D6000CDBF00BF0000000060B0012000E010089F
:107D7000A3F5803A704700BF174B002B08BF134B89
:107D80009D46FFF7F5FF00218B460F461348144A26
:107D9000121ABCF05EF90E4B002B00D098470D4B29
:107DA000002B00D098470020002104000D000D4852
:107DB000002802D00C48BCF0E4F864F035FE200046
:107DC0002900BAF016FF64F05BFC00BF0000080059
:107DD000000000000000000008120020081200202F
:107DE00040200320833F0C08000000004FF0006398
:107DF0009A6A02F17841B1F5C04F03D21168074A7F
:107E0000914203D000230370836070470122027007
:107E10009A6A926842609B6A9B69F5E707B0CD5EFB
:107E2000024B034A1A608CF095B900BF0000002095
:107E300002020FF073B54F4B04461A781AB10222B2
:107E40001A7002B070BDCDE900220028F9D00126D9
:107E50001E70D7F093FC484D484B186083F068FCC7
:107E60002B785BB902F066FC40B945480823454AC7
:107E70004549006802F076FA00B92E70434B5A6EFD
:107E800062619B6E424AA3614FF480439366414B0B
:107E90005968E16140499960196E2160596E6160CD
:107EA000D3F87011A160196CE160596C21613B49F4
:107EB000086C1864496C5964012151661B6E9C045E
:107EC00041D5374AD368D807FCD4364B1A68531CBF
:107ED0003ED04FF480139340334A13664FF400733F
:107EE0000426314C2666236689F0FBFB01300DD059
:107EF00089F0F7FB40F20113984207D04FF400538A
:107F000023664FF480432366C4F870610823264C2F
:107F1000684623664FF4805323664FF00063236660
:107F20004FF4002301A9636689F080FB009B236660
:107F3000019B63662B78002B83D0124B1A68226654
:107F40005B6863667DE7194AD368D907FCD4BCE750
:107F5000174B1B78002BC1D14FF400720C4B5A66A3
:107F600003F5A6235B68002BB8D14FF480120E4BAB
:107F70001A66B3E7364902203749022098B001203B
:107F8000542203209CB001200071080000800050A2
:107F9000009000500080004455CEAC0000C000545A
:107FA0000000044020220320009000440000045000
:107FB0003549022070B5224D04462E78012E02D09C
:107FC00001232B7070BD0028FCD089F08AFB0130A2
:107FD0000BD089F086FB40F20113984205D0194B73
:107FE000194A5E66D368DE07FCD42268174B1A660E
:107FF00062685A66A268C3F87021E2681A6422694E
:108000005A64E269D00744BF00229A60104B1A6894
:10801000013207D10F4A127822B90F494968C907BE
:1080200048BF1A6062690D4B5A66A2699A6683F06E
:1080300087FB0B4B1868D7F09CFB0023C1E700BF00
:1080400036490220009000400000044000800044B7
:10805000202203203549022000C005500080005036
:1080600098B00120F8B54FF00066B36A03F178428A
:10807000B2F5C04F26D21A68144B9A4222D1144D41
:108080002C7814F0FD0402D000242046F8BD4FF4F3
:1080900080371048FFF7CEFE20460BF02BFE0E4B2C
:1080A0002046DF600BF0E2FD0C4B1F61B36ADB6919
:1080B000984704460748FFF77DFF002CE5D10123D0
:1080C0002B70E1E74FF48174DFE700BF07B0CD5EAE
:1080D0003549022078B0012000A0004400900044FF
:1080E00013B5204B1B7803B9FEE700231E4CCDE9E6
:1080F00000336A4608231D49206802F033F9F8B9B5
:108100001B4AD2F84031D2F840211F2B4FF0010317
:1081100011D9203A9340019A1A43019208236A46E2
:108120001249206802F0DAF8124B134A1A608CF0F8
:1081300011F802B010BD9340009A1A430092EDE787
:108140002D28F1D10A4AD2F84031D2F840211F2B14
:108150004FF0010385BF203A93409340019398BFAD
:108160000093DBE736490220542203200071080007
:1081700000800044000000200B020FF038B54FF0E3
:108180000065AB6A044603F17842B2F5C04F12D2E3
:108190001B6B03F17843B3F5C04F0CD20648FFF7D1
:1081A00049FEAB6A20461B6B5B689847BDE83840C8
:1081B0000148FFF7FFBE38BDA4B0012010B54FF055
:1081C0000064A36A03F17842B2F5C04F14D21B6B6E
:1081D00003F17842B2F5C04F0ED25B6C63B1084830
:1081E000FFF728FEA36A1B6B5B6C984704460448A4
:1081F000FFF7E0FE204610BD40F20114FAE700BF91
:10820000A4B0012010B54FF00064A36A03F17842D6
:10821000B2F5C04F14D21B6B03F17842B2F5C04FD8
:108220000ED29B6C63B10848FFF704FEA36A1B6B78
:108230009B6C984704460448FFF7BCFE204610BDDF
:1082400040F20114FAE700BFA4B0012013B54FF0CB
:1082500000640190A36A03F17842B2F5C04F15D2D1
:108260001B6B03F17843B3F5C04F0FD20948FFF7FA
:10827000E1FDA36A01211B6B01A89B699847044695
:108280000448FFF797FE204602B010BD4FF48174FA
:10829000F9E700BFA4B00120F8B54FF00067BB6A52
:1082A000164603F17842B2F5C04F04460D4611D28E
:1082B0001B6B7BB10948FFF7BDFDBB6A20461B6BFA
:1082C000324629465B6A984704460448FFF772FE27
:1082D0002046F8BD4FF40174FAE700BFA4B00120B6
:1082E00070B54FF00066B36A044603F17842B2F508
:1082F000C04F0D4614D21B6B03F17843B3F5C04F4A
:108300000ED20948FFF796FDB36A20461B6B29463B
:108310009B6A984704460448FFF74CFE204670BD10
:108320004FF40174FAE700BFA4B00120F8B54FF094
:108330000067BB6A164603F17842B2F5C04F0446A7
:108340000D4615D21B6B03F17843B3F5C04F0FD226
:108350000948FFF76FFDBB6A20461B6B3246294672
:108360009B6B984704460448FFF724FE2046F8BD5F
:1083700040F20114FAE700BFA4B0012070B54FF03D
:108380000066B36A044603F17842B2F5C04F0D4669
:1083900014D21B6B03F17843B3F5C04F0ED20948DA
:1083A000FFF748FDB36A20461B6B2946DB6B9847F5
:1083B00004460448FFF7FEFD204670BD40F201145C
:1083C000FAE700BFA4B00120BFF34F8F0549064B69
:1083D000CA6802F4E0621343CB60BFF34F8F00BF63
:1083E000FDE700BF00ED00E00400FA050348044A81
:1083F0000449121A921089F023BA00BF7061000874
:10840000306300084020032008B500F02FF8FFF784
:10841000EDFF124B12498B4212D30020114B12492F
:108420008B4218D3FFF7A8FC186850F82240586810
:1084300040F82240013298688242F5D30C33EAE7D3
:108440000022F8E71C6844F8220001325C68A2426E
:10845000F8D30833E4E70022F8E700BF08E010088B
:1084600014E0100814E0100814E010084FF48041E4
:1084700070B5124B124A134D9A60D3F8882005F557
:10848000005442F47002C3F888200F4A91664FF0FE
:10849000FF3222660D4A62660222C3F8D020BFF383
:1084A0004F8FBFF36F8F4FF4403600200BF022FC4C
:1084B0000020E6600BF0DAFB2E6170BD00ED00E0FD
:1084C000006000080080004400900050F7FF370073
:1084D000014B1860704700BF28220320054B18602D
:1084E000054B1B6F03F00703032B01D1D2F072BEC3
:1084F000704700BF30220320008000502DE9F0417A
:1085000004460C254FF00108124E0CB314F0010084
:108510000BD0002024F0010405FB00625768002FF7
:10852000F3D09168C0B2B847EFE722460130202867
:108530004FEA520201D0D307F8D508FA00F20F280B
:1085400024EA0204E8D9103805FB0062B432E5E7FA
:10855000BDE8F081C4B0012008B50C488BF0EFFDF8
:1085600019200BF091FB28B119200BF0C3FB192047
:108570000BF07CFB1A200BF087FB28B11A200BF0C4
:10858000B9FB1A200BF072FB002008BD401C0E083E
:108590002DE9F0410E461746054610B30F2922D8A3
:1085A0000378DBB1013BDBB2022B1CD8104AD35C51
:1085B0006A78D340DB0716D50E4BD3F81043A4B925
:1085C000D7F0DCF880463A462846314604F0C4FC31
:1085D0004046D7F0CEF82046BDE8F08140F2FF13C8
:1085E000E6E72224F7E72124F5E70224F3E700BFBA
:1085F000D8FF0D0800C0035070B50D46044658B3AF
:1086000051B30378DBB1013BDBB2022B26D8144A0D
:10861000D35C6278D340DB0720D5D7F0AFF80646AD
:10862000204604F0D9FC032828700BD8B0FA80F358
:108630005B0930466B70D7F09CF8002009E040F2EF
:10864000FF13E6E7031F0B2B04D93046D7F091F850
:10865000242070BD0123ECE72220FAE72120F8E76F
:10866000D8FF0D0810B50446E0B10378BBB1013B5B
:10867000DBB2022B18D80D4AD35C6278D340DB07FB
:1086800012D5D7F07BF80122637821789A40302305
:108690005943074B5A50D7F06CF8002010BD40F2F8
:1086A000FF13EAE72220F9E72120F7E7D8FF0D08BA
:1086B00040D0035010B50446E0B10378BBB1013B94
:1086C000DBB2022B18D80D4AD35C6278D340DB07AB
:1086D00012D5D7F053F80122637821789A403023DD
:1086E0005943074B5A50D7F044F8002010BD40F2D0
:1086F000FF13EAE72220F9E72120F7E7D8FF0D086A
:1087000040E0035010B50446E0B10378BBB1013B33
:10871000DBB2022B18D80D4AD35C6278D340DB075A
:1087200012D5D7F02BF80122637821789A403023B4
:108730005943074B5A50D7F01CF8002010BD40F2A7
:10874000FF13EAE72220F9E72120F7E7D8FF0D0819
:1087500040F0035038B50D46044610B309B3037812
:10876000E3B1013BDBB2022B1DD8104AD35C627827
:10877000D340DB0717D5D7F001F8302223785343D5
:1087800003F1A04303F570331B6C6278D34003F010
:1087900001032B70D6F0EDFF002038BD40F2FF132F
:1087A000E5E72220F9E72120F7E700BFD8FF0D0811
:1087B00038B50D46044610B309B30378E3B1013B65
:1087C000DBB2022B1DD8104AD35C6278D340DB07A2
:1087D00017D5D6F0D3FF30222378534303F1A043BB
:1087E00003F570335B6C6278D34003F001032B70A8
:1087F000D6F0BFFF002038BD40F2FF13E5E722208E
:10880000F9E72120F7E700BFD8FF0D082DE9F04177
:108810000D46164698460446002855D0002953D0E8
:108820000278002A46D0531EDBB2022B03D9FF2A5E
:1088300007D0212046E0254AD35C4278D340DA07AE
:10884000F7D5022E01D9042EF3D1D6F097FF237865
:108850000746FF2B05D032462046296804F0D8FB96
:1088600028602B68013309D12378FF2B06D1184BE0
:108870006078D3F824148AF010F8286029684B1C1B
:108880001CD00C23134A03FB0121C1F80480296882
:1088900003FB0122069B93602378FF2B05D0012365
:1088A0002A6893400C4AC2F824343846D6F061FF57
:1088B000002007E040F2FF134278BFE73846D6F0C9
:1088C00058FF2D20BDE8F0812220FBE7D8FF0D08DE
:1088D00000C00350C4B0012000D0035008B504F01C
:1088E00031FB054B00F0553020F05020C3F8200438
:1088F000BDE80840FFF702BE00E0035008B504F0F1
:1089000021FB054B00F0AA3020F0A020C3F8200482
:10891000BDE80840FFF7F2BD00E00350144B984259
:108920001AD008D8A3F5004398420CD003F5804331
:1089300098420DD070470F4B984211D003F58043F9
:10894000984211D070470C4B0B600C4B1360704772
:108950000B4B0B600B4BF9E70B4B0B600B4BF5E72D
:108960000B4B0B600B4BF1E70B4B0B600B4BEDE72D
:108970000000055000400550341C0E087C1C0E08F9
:10898000301C0E08701C0E082C1C0E08641C0E08EF
:10899000281C0E08581C0E08241C0E084C1C0E081F
:1089A00030B504460D468DB002AA01A90068FFF754
:1089B000B5FF01988BF0C3FB38488BF0C0FB63799F
:1089C0002A798DF80030003AA37918BF01220421DA
:1089D00068468DF80130FFF7DBFD0D22002104A869
:1089E000BBF037FB02238DF811302D4B2179059315
:1089F0002B7920685A1E5342534104AA8DF81A302D
:108A000089F0E4FE2268274B9A423FD003F5804369
:108A10009A423DD003F580439A423BD003F5804310
:108A20009A4239D020482149A3F5BC33A3F5CE732F
:108A3000824208BF0B46A0796279217942EA00425E
:108A400043F82120029B03A91879D6F05BFF2A681E
:108A5000039B0025B3FBF2F32268013B116BD3614A
:108A600023682279196B03EB421329460F229D6676
:108A70000DF12100BBF0EDFA0123206808A98DF863
:108A8000203089F061FE28460DB030BD084BD2E79A
:108A9000084BD0E7084BCEE7084BCCE7401C0E084C
:108AA00000010300008004500080055004C70350FB
:108AB00084C60350A4C60350C4C60350E4C6035082
:108AC000012301790268114803FA01F1824216D0AC
:108AD00000F5804082420DD00D4B9A4211D003F533
:108AE00080439A420FD003F580439A4214BF4FF05F
:108AF000FF330423074AB4335B01D150704700238E
:108B0000F8E70223F6E70323F4E700BF00800450F0
:108B10000000055000C0035001230179026811488C
:108B200003FA01F1824217D000F5804082420DD055
:108B30000D4B9A4212D003F580439A4210D003F5B0
:108B400080439A4214BF4FF0FF330423074A03F5D2
:108B50009A735B01D15070470023F7E70223F5E7D2
:108B60000323F3E7008004500000055000C00350C9
:108B700013B504460A488BF0E2FAA2780421B2FA4F
:108B800082F2237852098DF8043063780DEB0100EE
:108B90008DF80530FFF7FCFC002002B010BD00BFCF
:108BA000401C0E082DE9F04F9A46564B85B01B78B5
:108BB00006460F461546DDF83C909DF844B0DDF8BA
:108BC0005080002B00F09780072A00F296800E9BC1
:108BD000002B00F09280B9F1000F00F08E80129B04
:108BE000B3F5006F00F38980012803D1109B002B9F
:108BF00000F08380444B03EB05131B7B002B7ED0DE
:108C0000424C102200216846BBF023FA04EB4514C5
:108C10001022A7BB39462046BBF01BFA43F21003D3
:108C20006380BBF1000F03D1E37843F00303E370EB
:108C3000364A0E9B02EB451CCCE90193129BCDF802
:108C400000A0581E9DF84C30690103F00303C0F3E7
:108C50000A009B0643EA001E53582D48012E00EAE5
:108C600003004EEA0003535017D0B8F1000F2ED185
:108C70009CF8023068F304138CF8023027E00021DE
:108C80002046BBF0E6F94FF444736380BBF1000F5C
:108C9000CED1E37843F03003C9E713230CF1100E73
:108CA000CCF80C309CE80F008EE80F006FF0030149
:108CB000DCF81C20109B61F39F02012FCCF81C20D4
:108CC000CCF8143003D1CCF81890CCF8043000273D
:108CD0000D4A290102EB051342F80180159A284636
:108CE0005A60694622469F605E7303F0B7FF3846BC
:108CF00005B0BDE8F08F0748FAE70748F8E70748EE
:108D0000F6E700BF384902202CB301202CB2012025
:108D10000F80FFF3028000F0018000F0078000F078
:108D200038B5124B05461B78DBB1E0B1D6F026FD15
:108D30000F4A00231146147B54B92B6001251A01F8
:108D400001EB03131D738C50D6F013FD204638BD84
:108D50000133082B02F11002EDD1D6F00AFD0548CF
:108D6000F5E70548F3E70548F1E700BF3849022079
:108D70002CB30120048000F0028000F0018000F09C
:108D8000154B13B51868002301908DF80430D6F008
:108D9000F5FC124B1C7824B1D6F0EBFC104802B065
:108DA00010BD01221A70D6F0E4FC0E4B01A81C7312
:108DB0001C7783F82C4083F83C4083F84C4083F8C0
:108DC0005C4083F86C4083F87C4008238DF80730C2
:108DD00003F014FF2046E2E7DBFF0D0838490220CC
:108DE000038000F02CB3012008B50A4A12785AB16A
:108DF00007280BD8084A02EB00131B7B43B1002164
:108E000003F0EEFE002008BD0448FCE70448FAE742
:108E10000448F8E7384902202CB30120028000F012
:108E2000018000F0078000F008B50A4A12785AB1B4
:108E300007280BD8084A02EB00131B7B43B1012122
:108E400003F0CEFE002008BD0448FCE70448FAE722
:108E50000448F8E7384902202CB30120028000F0D2
:108E6000018000F0078000F02DE9F041174B1F6DE5
:108E70005B6D1F4000D5FEE701260025144CDFF88E
:108E80005880374218D0C8F850602368A3B1A16851
:108E9000284601316268A1609847637B012B0BD1A2
:108EA00050B90C4B03EB45131A7B60F341021A7364
:108EB0001A7F60F341021A770135082D4FEA460602
:108EC00004F11004DDD1BDE8F08100BF00000450C2
:108ED0002CB301202CB20120002004502DE9F04FCA
:108EE000144605460E469B46C36B87B001225B695C
:108EF00002A960689847EB6B01225B6903A93046C1
:108F0000984702A889F037F9074648B10023A375AE
:108F100063754FF0FF33A360002007B0BDE8F08F0A
:108F200003A889F035F90123A375237E04EBC3035D
:108F3000DE611F846368B3420ED1206003A889F00C
:108F400049F94FF0FF332075A360237D043B022BCA
:108F500026D80023A375DFE723681A1A534253412A
:108F6000A37503A889F036F9237D834218BFA7753E
:108F700003A889F011F9074602A889F00DF9874284
:108F800018BF002303A818BFA37589F00DF9074681
:108F900002A889F009F987421CBF0023A375D4E712
:108FA00003A889F0F9F880B1EB6B022230465B69C7
:108FB00004A9984704A889F0FEF80346207D0328F9
:108FC00039D8DFE800F03838040903A8F3E7CC22E9
:108FD000237E04EBC3031A8401F016FC109B187067
:108FE00003A8277E89F0CCF804EBC70787F8220096
:108FF000237E03A804EBC303B3F8209093F82270F8
:1090000089F0CAF8804603A889F0CEF88246B8F104
:10901000000F15D0EB6B022230465B6904A998471C
:1090200004A889F08DF86075637D6BB90023A37582
:109030004FF0000839E0227E04EBC2021384CBE734
:1090400003A889F068F8EEE794F81680B8F1000FED
:10905000EED0B9F1000F09D1E7B10123627EE375CB
:10906000002A45D19F4219D1677615E06B6C06EB5B
:109070000A025B4286EA02010B421CBF0023A37571
:109080006B6C591E0A409B1A9945CFD8A37D002BC3
:10909000E2D1CDE7E37D43B94FF000084B4652469D
:1090A0003146284688F0A4FDA060A27D12B1236954
:1090B0004B4423611349237E097899421ED9013319
:1090C0002376BBF1000F1BD0D2B1E37DC3B1B8F161
:1090D000000F15D1032F13D0A1684B1C10D0109B8B
:1090E0002246009328460123FFF7F8FEA07507E00B
:1090F000012FDAD0032F08BFA376CDE70023A37595
:10910000A07D0AE700000E082DE9F04F0E469846B4
:1091100000238BB004464FF0FF31104617468DF800
:10912000133001F05BFBB6F5801F3BD3B21C53D16B
:10913000E56A6B1C57D12046616A88F09FFC0546A2
:10914000B31C18BF0123DFF810910193636A626CAE
:109150000293236805A902FB053AE36B05225B69CC
:109160005046984705A889F0A1F889F0C4F8504600
:1091700089F0CCF84FF0000B824601464B1C05D01D
:10918000636C81EA0A025B42134232D029462046D0
:1091900088F074FC029BAB424DD0BBF1000F4DD167
:1091A0000546D3E7314605AA04F1080088F031FFEF
:1091B0000146481C10D0384601F010FB0122394608
:1091C00020460DF1130388F065FD28B19DF813309A
:1091D00088F80030002003E0237C002BA8D12D204C
:1091E0000BB0BDE8F08F2368ED1A636CB5FBF3F5A7
:1091F000A6E7484601F0F2FA0DF11303494620466E
:10920000019A88F047FD034690B1B21C03D0D9F80B
:109210000020B2420CD19DF8132003930D4B88F827
:10922000002049461A683846BAF0CBFD039B9B469E
:10923000D9F80810A2E7BBF1000FD0D0B6F5801F17
:10924000C8D2314698F800307A6804F1080001F07D
:10925000F7F9BFE7FCFF0D0820BA01202DE9F34123
:109260000446174698460E46194D816AE36A8B42BA
:109270002AD04B1C18E0284601F0B0FA01222946FA
:1092800020460DF1070388F005FD30B1434629461D
:1092900020469DF80720B847B0B1A9684A1C05D000
:1092A000012E0AD0E36A9942E5D10DE069682046B3
:1092B00088F071FC012E0146D8D16B6881EA030267
:1092C000636C5B421A42D1D002B0BDE8F08100BFAE
:1092D000F4B901202DE9F0419046036B826B0768D9
:1092E0009A4288BF8363426C436A90B002FB037763
:1092F000C36B0E46052201A95B69044638469847B0
:1093000001A888F0D3FF01280146307057D0656C62
:10931000E26B2368606AD2F814C005FB00300522B6
:1093200006A9E04706A888F0C1FF01284FF0000514
:1093300023D0D4E90A3201219342CDE90B458DF8BF
:1093400034800E958DF83C102AD11946204688F0BD
:1093500022FC236B626C14339B1AE06223630C9B28
:1093600053B99DF83C303BB1626A616C2368E06B95
:1093700001FB023188F052FF0C9DE36B05225B6913
:1093800001A93846984701A888F090FF3070284618
:10939000236BA26B9A4288BFA36310B0BDE8F08133
:1093A000237C33B91C490BAA04F1080001F0A0F991
:1093B000D5E72046194A0BABFFF750FFCFE7237CD8
:1093C00023BB2246164904F1080001F091F9616AB5
:1093D000204688F074FB616A421C204688F03DFB01
:1093E000054620B9236B626C1344143B236320466B
:1093F000A16A88F0D0FB2368A062C01A636CB0FB3E
:10940000F3F06062204688F009FCB6E700232046AE
:10941000044AFFF723FFDAE7B99D0008359D0008ED
:109420001F1D0908B91C090873B50D46D11E4A4213
:109430001C461B7E4A419A4227D1296823689942DB
:1094400023D36368994220D8114E0DF107033246A9
:10945000FFF75AFEC8B972686B689A4215D19DF839
:109460000730DA1E53425341227E93420DD1636985
:1094700001336361D4E90323934206D22968A268C9
:1094800042F82310236901332361012002B070BD2B
:109490004CBA01202DE9F04F9A468BB09DF8503020
:1094A000DFF850B10293DBF81030804653450D468B
:1094B0001646C0F09980D146DBF804300193B9F12B
:1094C000000F00F08D80D8F83C3001225B6907A9BD
:1094D0000198984707A888F05BFEDBF800309842B7
:1094E00040F0858007A888F05FFE0428074614D165
:1094F00007A888F060FE019B029A04463B44002ABC
:109500003FD1864212D91446361A4046019988F056
:1095100042FBA9EB04090190D1E7D8F83C300222C4
:109520005B69019808A9984708A8E2E7841B54459D
:1095300028BF5446032C03EB0607AAEB040A4FEAA4
:1095400094021CD9D8F83C30294638465B699847C4
:1095500024F0030304F003061F441D44002ED4D05E
:10956000D8F83C3001225B6908A938469847324652
:10957000284608A93544BAF024FC0026C5E726464B
:10958000ECE7074600F00302039203442A18049212
:109590000593049BDD1B059BD81B039B9F420FD1AA
:1095A000002FB2D0D8F83C30012208A95B69984757
:1095B0003A46284608A9BAF022FD78B93D44A4E706
:1095C000D8F83C30012208A95B6998470422284654
:1095D00008A9BAF014FD08B9043FDAE74FF03609DC
:1095E00048460BB0BDE8F08F4FF06309F8E74FF045
:1095F0006F09F5E778BA01202DE9F0410F461646CC
:109600009846044688B060B390F83450FDB101210B
:1096100088F0F9F900210E9BCDE90511CDE902375B
:109620009DF83C30CDF804808DF81C30237C0496E6
:109630008BB90D4901AA04F1080001F059F8DDE9E0
:109640000553E06B002E08BF1D4688F076FB2846C8
:1096500008B0BDE8F0812046044A01ABFFF7FEFDEB
:10966000EDE70546F3E700BFE71C09082994000869
:109670007FB590F84260044601920DF10B030A4653
:109680003046124988F061FB012E0546E36B19D183
:1096900032465B6903A998479DF80B10039B019A1A
:1096A00059B19BB243EA0243012228460393E36B7C
:1096B00003A99B69984704B070BD1B0C1B0492B2B0
:1096C0001343F1E701229B6901A9F3E778BA01206E
:1096D0002DE9F04F99B00F4609920A69416C0E933B
:1096E0001439D31DB3FBF1F3013302EBC302036B57
:1096F00004469342C0F00D820023DFF820940D93BE
:10970000E36A48461946079301F068F8D7E903363B
:1097100004930E9B022B4ED1CC2E40F08A81099BE4
:10972000002B42D03946204688F065FB656C079ACD
:109730006B1E13401490ED1AE36B01225B6916A9AE
:109740007868984716A888F027FD00280CBF0423E6
:109750000823782E06933DD9012300254FF0080AEF
:1097600005933B6805990E98C9F80030C9F8106058
:1097700088F034FD4FEA9A0310930023DDF81CB003
:1097800089F814000B930F9308930C93616C4A1E95
:109790000BEA02028B1A002E38D05544AB4240D857
:1097A000236B5B1A13442363ABE0049B1B68149385
:1097B00008230693D0E7656C079A6B1E1340782E3A
:1097C000A5EB030516D8FB7D7BB9099B002BB3D114
:1097D00004230693331DAB4210D9A6B1082DBBD884
:1097E00004250023AA460593BBE7099B002BA3D1C0
:1097F0000823EEE7099B002B9ED1D9E700250595AC
:109800004FF0040AADE704250596F9E75345C7D3A1
:10981000B0460BEB0A030393089B002B18BF0323EE
:1098200013E0A3EB0A039E42B0460BEB0A0228BFEB
:1098300098469E420392EFD90123D9F8102089F867
:109840001730964271D1C9F804B0089399F81730CF
:10985000002B6CD099F818200899D31C09EBC3038E
:109860000132C3F804B0A3F80880997289F818206F
:10987000B8F1000F14D00E9B022B5BD10B9B7BB970
:109880000F9B4344032B0BD9E36B01229B69039885
:1098900014A998470546002840F03D8101230B9309
:1098A000089B16A80193059B009399F81420434642
:1098B000396800F049FFE36B58469B69109A16A976
:1098C0009847051E0D9B18BF5B4652460D9359469F
:1098D0004346204688F08CF9236B08F10302A3EB82
:1098E0000A0322F003029B1AC9F808002363002D23
:1098F00040F011810F9BDDF80CB04344A6EB080645
:109900000F935946204688F046F900258346002EDD
:109910007FF43CAF814A04F1080093685268E36227
:1099200039680E9B00F08CFEDEE002238DE7C9F85B
:1099300004B09DE7099B002B30D1049BB8F1030FC5
:1099400043440A9327D9DDE90301E36B4FEA980208
:109950009B6998470546002865D118F003025FD03F
:10996000049B28F003052B440493039B1D444FF0F4
:10997000FF33049915A81593BAF023FAE36B284630
:109980009B69012215A9984705460A9B0493002D5F
:1099900086D0039B99E74246039DE8E7039B0A9321
:1099A00007F120031193FB7D78689BB100233D7E76
:1099B0000C9AD9B28D4211D9119903F1010C31F8E9
:1099C0003310914226D9069907EBC303D8690A449C
:1099D000104403E00C9B069A13441844E36B0122E5
:1099E0005B6915A99847159B012213930C9B0A9854
:1099F00004330C93E36B13A99B699847039B0A9A62
:109A000043449B1A042B054607D978B913460433FF
:109A10000A93C8E76346521ACBE70A9B0393B6E75B
:109A20000A9B04933CE70A9B0493B2E70A9B0393C7
:109A3000AFE7702604F1080303932368079A606C6C
:109A4000A2EB030ABAFBF0FA00FB0A3088F05EFCD6
:109A5000E16A8046204688F09EF8A26A82424AD097
:109A6000626CD9F80830511E0B40216B2568891AA9
:109A70000B4423630D9BE0625D1BB5FBF2F5AA4529
:109A800036D1079BB3EB080A12D0E36B4FEA9A0278
:109A900041469B6998478346E36A079A5344E362C9
:109AA000236B03989B1A4344236388F083FADA46B6
:109AB0002368616CE06B01FB053188F09CFB20465C
:109AC00087F0ACFF204688F0A9F82063BAF1000FB8
:109AD00011D03A69616CD31D1439B3FBF1F3013332
:109AE00002EBC3029042A8D2304619B0BDE8F08F15
:109AF0004FF0000ADCE73A69616CD31D1439B3FBFF
:109B0000F1F3013302EBC302236B9342BFF4F8ADD0
:109B1000EAE71C26E8E72E468CE700BF20BA0120C2
:109B20002DE9F3471E4643690446B342884617466B
:109B30009DF828903DD300258DF80750204687F0EA
:109B400039FFD4F830A082450AD2236AB5EB430F1F
:109B500006D2002220460DF10701FFF7BBFB30B310
:109B60009DF80730012B05D1002220460DF1070199
:109B7000FFF7B0FBB9F1030F06D03146204687F05E
:109B800004FF256B854218D30D4D4FF0FF31284659
:109B900000F024FE4B46002229462046C5E9037604
:109BA000C5F8008002B0BDE8F047FFF791BD013570
:109BB000C4E7622002B0BDE8F0871C20FAE700BFCE
:109BC0004CBA01202DE9F04790F8426086B0012E92
:109BD00005460391A1EB020715D1B7F5807F28BF99
:109BE00003264FF0640800244FF6FF79DFF840A108
:109BF00095F84230012B14BF322364239C420AD3D0
:109C00005FFA88F415E0B7F5803F34BF01260226DD
:109C10004FF03208E7E705AB22465146284688F068
:109C2000C8F895F84230012B059B34D14B452DD116
:109C3000E4B295F84230012B0CBF64223222121B91
:109C4000B24217D3012E39D10022012B05978DF88E
:109C5000132027D1082205A90DF1130088F072FB0B
:109C60009DF81330059A42EA032221462846FFF761
:109C7000FFFC40B102232E4900932846CC230968FB
:109C800003AAFFF74DFF06B0BDE8F087DBB203B9CA
:109C900002340134ACE7591CCAD09BB2002BF8D176
:109CA0000134F6E7102205A90DF1130088F04AFBF4
:109CB0009DF81330059A42EA0342D6E7039A012B36
:109CC000059223D10823202205A90DF113008DF858
:109CD000133088F037FB9DF81320120221462846E6
:109CE000FFF7C6FC95F84230611C012BC9B21AD1AE
:109CF0000028BFD12846BDF81420FFF7B9FC002882
:109D0000B8D10234BDF81620E1B2AFE7102320220B
:109D100005A90DF113008DF8133088F013FB9DF8A1
:109D200013201204DAE70028A4D1059A9EE700BFA9
:109D300078BA0120032A2DE9F34106460D4617465D
:109D40001C4606D1237A012B23D0012002B0BDE8A6
:109D5000F081DFF86080096842460DF10703FFF7E4
:109D6000D3F960600028EDD19DF80720237A032AFB
:109D7000E8D0D8F804106A689142E3D1012B296930
:109D8000D4F80CC007D172690CEB0103934202D9DD
:109D90002074207CDAE708316144E1603B4601220F
:109DA00029463046FFF794FC60600028CAD00020A6
:109DB000CCE700BF4CBA0120F7B5089C032A164631
:109DC000256805D1237A012B22D0012003B0F0BDF4
:109DD000254F28463A460DF10703FFF795F96060D5
:109DE0000028EFD1D4F800E07868DEF82810DEF81B
:109DF00044C04840CCF100031840227AE2D1012A45
:109E000008D1E2683B6913446A69934202D920741D
:109E1000207CDBE7DEF80020DEF82C30891A9B1A64
:109E2000B3FBFCF3B1FBFCF18B420DD1696CEB6A27
:109E30004A1E13402A6B521A13442B632568284686
:109E4000A96A87F0A8FEE8623A69E3680832134419
:109E5000E3600122334604492068FFF739FC606063
:109E60000028AFD00020B1E74CBA01202DE9F04F17
:109E70004FF0FF334FF6FF720025044600F108064D
:109E8000C0E909238BB0C3620562056330460F4603
:109E900088F090F8204687F0C1FD20BB2046394667
:109EA00087F03CFE204687F0B9FD20BB5E200BB05A
:109EB000BDE8F08FE26B2368606CD2F814C000FB41
:109EC0000530052205A9E04705A888F0EFF901282B
:109ED00028D12946204687F0F2FD421C294620461B
:109EE00087F0BBFD0135E3699D42E3D3204687F04F
:109EF00095FD0028D2D000254FF0FF394FF6FF73B3
:109F0000CA46A846C4E90853E369984514D3A5EBAB
:109F10000905012D36D84FF6FF72636A934246D188
:109F20006720C4E788F0ECF90028DBD029462046FA
:109F300087F0C5FD0246D1E72368E26B606C576984
:109F400000FB0830052205A9B84705A888F0AEF93E
:109F5000834605A888F081F90746584688F0CBF972
:109F600068B1574538BFC4F82480B94528BFB94601
:109F7000BD4238BF3D46BA46236A0133236208F129
:109F80000108C1E74FF6FF7300256362E3699D4254
:109F9000C1D2676C2068E36B052207FB05005B6993
:109FA00005A9984705A888F058F90135EEE7E26B56
:109FB000676C2068694607FB030055690522A847BE
:109FC000684688F04AF9626A2368606C504D00FB6D
:109FD000023088F09BF94FF0FF33A062E3622A461B
:109FE0006FF00101204605ABFFF78EF800284FD136
:109FF000AD6829462046E56287F0ECFC206320B975
:10A000002046E16A87F0C7FDE0622946204687F0D6
:10A01000C2FD0546A36A9D423CD16569626CE91C9C
:10A02000143AB1FBF2F14FF0000805EBC10503351E
:10A03000B5FBF2F5C1460235E36999453CD3A84525
:10A040005AD22046616A87F019FD0027064604F1BE
:10A05000400AB84512D8626C2368694602FB06398B
:10A06000E36B05225B6948469847684688F0F5F837
:10A07000534602464946E06B88F04AF9314620468D
:10A0800087F0FCFC0137AF420646E2D364200EE7BE
:10A09000A56AAEE72946204687F09CFC236B29463B
:10A0A000034407462363204687F075FD0546002FCD
:10A0B000B0D1C4E90B07ADE7636C2768052203FB49
:10A0C0000977E36B05A95B693846984705A888F0CE
:10A0D000EDF888F010F960B1384688F017F90146BC
:10A0E000204687F077FC636C143B984208BF08F168
:10A0F000010809F101099FE7304687F05BFF002363
:10A1000020461946034AFFF7A9F80020CFE600BF12
:10A110004CBA0120831C090800232DE9F041614A53
:10A120000E4617680446136018B921252846BDE875
:10A13000F08190F834500DB309680268914240F004
:10A14000A98071684268914240F0A480B168826839
:10A15000914240F09F80F168C268914240F09A803D
:10A1600031694269914240F09580B169C26B914278
:10A1700040F0908072691D468261D7E7D0F8388040
:10A1800050222946B9F065FFC4F83880336804F1DD
:10A190000800236073686360336963617369A36156
:10A1A000D6E9021287F018FFB36904F14000E363B7
:10A1B0009B68984794F8432020B1E561002AB4D009
:10A1C0005B25B3E7656C002DF7D06668B6FBF5F349
:10A1D000E361002AA9D0B542F2D82268B2FBF5F1BA
:10A1E00005FB1122002A57D105FB1363002B53D125
:10A1F000204687F0DFFBA369043303449E424DD31E
:10A2000040F634726369CC3B934249D8B5F5007F80
:10A21000D6D30321204687F0F6FBD4E90001E36B97
:10A220001B6898470546E36B0220DB6898471DB121
:10A23000002384F834301DE039462046FFF716FE2F
:10A240006428054604D139462046FFF70FFE05462F
:10A25000636C143B002DEBD1226A204602FB03F60F
:10A2600087F0A8FBA369043303449E4206D284F816
:10A2700034505A25E06B87F060FD57E70123D4E99D
:10A280000001094A84F8343013680133136087F001
:10A290003DFFEFE75D2549E7592547E75A2545E7A3
:10A2A0005F2543E7B0B30120ACB3012008B578B116
:10A2B00090F8343073B10023074A80F834301368C3
:10A2C000013B136013B9C36B5B689847002008BD5E
:10A2D0002120FCE71120FAE7ACB301202DE9FF4172
:10A2E0000F4690461E46054698B390F8343093B317
:10A2F000B1F5801F31D21A4C022187F084FB22462F
:10A30000394628460DF10F03FEF7FEFE024678B1EE
:10A31000012342460093394633462846FFF700FCA6
:10A320000446E86B87F009FD204604B0BDE8F081E3
:10A330009DF80F30012BEBD12169B142E8D1009398
:10A34000414633462846FFF7A5F804460028DFD1EA
:10A35000E7E72124E8E71124E6E72924E4E700BF42
:10A3600078BA01202DE9FF410C4616461F460546E6
:10A3700080B390F834307BB3B1F5801F2ED2DFF874
:10A380006080012187F03FFB2146424628460DF1BF
:10A390000F03FEF7B9FE044670B99DF80F30012B8C
:10A3A00011D1D8F81030BB4212D10246009031468C
:10A3B0002846FFF76FF80446E86B87F0BEFC20469E
:10A3C00004B0BDE8F081022B14BF2D246024F3E714
:10A3D0006324F1E72124F2E71124F0E72924EEE7D2
:10A3E00078BA01202DE9F04385B00C4617461E4689
:10A3F0000546DDF8308098B390F8343093B3B1F56A
:10A40000801F31D2DFF86490012187F0FCFA2146E9
:10A410004A4628460DF10F03FEF776FE044688B93A
:10A420009DF80F30012B14D1D9F8102006EB08034A
:10A430009A4213D300904346324639462846FFF7E6
:10A4400029F80446E86B87F078FC204605B0BDE8A3
:10A45000F083022B14BF2D246024F3E76324F1E77B
:10A460002124F2E71124F0E72924EEE778BA01204D
:10A4700070B586B00E4605460392A0B390F834300E
:10A480009BB3B1F5801F32D2022187F0BCFA31466E
:10A490002846184A0DF11703FEF736FE044618B990
:10A4A0009DF81730032B0ED1022331460093284626
:10A4B000CC2303AAFFF734FB0446E86B87F03DFC8E
:10A4C000204606B070BD022B0BD10A49284687F002
:10A4D00092FC039902468142EFD02846FFF772FBB7
:10A4E000EAE76124E9E72124EAE71124E8E72924DF
:10A4F000E6E700BF78BA012073B50C46164605465C
:10A5000030B390F834302BB3B1F5801F24D2012141
:10A5100087F079FA21462846104A0DF10703FEF725
:10A52000F3FD044680B99DF80730032B0CD0022BB5
:10A530000CD12846094987F05EFC3060E86B87F053
:10A54000FCFB204602B070BD2D24F7E76124F5E73F
:10A550002124F6E71124F4E72924F2E778BA012050
:10A560002DE9F3411F4600230C46164605463B6085
:10A5700050B390F834304BB3B1F5801F28D2DFF8D8
:10A580005480012187F03FFA2146424628460DF1CA
:10A590000703FEF7B9FD0446A0B99DF80730032B69
:10A5A00010D0022B0AD10123336004233B60E86BF7
:10A5B00087F0C3FB204602B0BDE8F0813060D8F8D8
:10A5C0001030F3E72D24F2E72124F3E71124F1E71B
:10A5D0002924EFE778BA012030B50C46054685B04E
:10A5E00028B390F8343023B3B1F5801F23D2022171
:10A5F00087F009FA0DF10F03214628460F4AFEF7AE
:10A6000083FD034688B99DF80F20032A0DD003224D
:10A610002146009202462846FFF782FA0446E86B7C
:10A6200087F08BFB204605B030BD2D24F7E72124B1
:10A63000F8E71124F6E72924F4E700BF78BA0120EF
:10A640002DE9F0414668002E3AD0056898464FF053
:10A65000000CAE4655F83C40C4F31307013401D05A
:10A66000B94222D00CF1010C66450EF1080EF1D171
:10A6700000273C4603E0A64207F108071DD055F825
:10A68000343001340133F6D16FEA01316FEA113110
:10A69000E9510168CB59C3F3130343EA0853CB5183
:10A6A00003683B445A60BDE8F08141EA0851CEF8A6
:10A6B0000010036803EBCC03F4E7B8F1030F03D1F8
:10A6C00001230372BDE8F08100273C4603E0A64267
:10A6D00007F10807F4D055F834300134C3F3075CB0
:10A6E000BCF1030FF3D11B0D1B050B43EB51D0E75E
:10A6F0002DE9F0410646406882B0C0B10F46904651
:10A700000024336853F8345003EBC403C5F30752F5
:10A71000C5F31301013504F1010406D05B6830462E
:10A72000CDF80080B84710B170688442E9D302B018
:10A73000BDE8F081024B1968024B1868FFF7ECBCCA
:10A74000342203205422032073B504462248012AF0
:10A7500000EAC1119DF8185023F07C4007D9961EDD
:10A76000012E28D9073303F07F03194308E09DF831
:10A770001C300A43DB0603F0C053134343F060412F
:10A780000023C4E900108DF80730B5B1202221461E
:10A790000DF1070087F0D6FD1A220DF10700211DEB
:10A7A00087F0D0FD082063689DF8072043EA8263A4
:10A7B000636002B070BD1143E2E71B220DF1070098
:10A7C000214687F0BFFD23689DF80720042043EA57
:10A7D000C2632360EDE700BF80FFFF0738B5094B78
:10A7E0000D461A6800210446B9F033FC4FF0FF32E1
:10A7F0000023C4E900252361A260E3822383A376BA
:10A8000038BD00BFFCFF0D080138C0B205289ABF53
:10A81000014B185C0120704701000E082DE9F04142
:10A820000746154600240E46596888B0490A012992
:10A8300022464FEA510104F10104F8D8DC789978F6
:10A8400024031B88C90201F4006104F480540C4302
:10A85000C3F30A035203234492B24FF000089C183A
:10A86000274B6FEA0444039325F07843ED4302A994
:10A870000DF107001B2202938DF8078087F062FD1F
:10A880009DF80720029B02A943EAC2630DF107006D
:10A890001B2225F07845049302958DF8078087F0F8
:10A8A00051FD9DF80720029B6FEA144443EAC263FE
:10A8B00005934FF0FF330794069307A9BB69012264
:10A8C00006F110009847BB6905A90446012206F16C
:10A8D00008009847BB69404518BF044604A90122F7
:10A8E000301D98470122404518BF0446BB693046D9
:10A8F00003A99847404508BF204608B0BDE8F0814D
:10A9000001009AB238B504460D46D4F037FFA3884B
:10A910009BB223B92B60D4F02CFF064838BD14221B
:10A9200063889BB202FB034408342C60D4F021FFFF
:10A930000020F3E70B7000F038B141B1013AB2F5F5
:10A94000006F044838BF0020704703487047014833
:10A95000704700BF037000F0027000F030B510497E
:10A96000104B0A782AB9C3E90022C3E90222012266
:10A970000A700C4900220C4654F8045B854208D04A
:10A980000132042AF8D1002251F8044B1CB943F8D3
:10A990002200002030BD0132042AF5D10248F9E737
:10A9A00039490220A4BA0120027000F0002313B537
:10A9B0001D4A52F8044B94F8211081420ED0013305
:10A9C000042BF6D102B010BD0028FBD19DF8073052
:10A9D000002BF7D0A068FEF707FAF3E794F83530BC
:10A9E000022BEFD1204687F036FD637E2076022BC6
:10A9F000E8D194F8323003F0FF02002BE2D1A068D6
:10AA00000DF107018DF80720D0F056FC237E1BB115
:10AA100094F83330002BD7D00023A06884F833306B
:10AA2000FEF702FACEE700BFA4BA012010B5044633
:10AA3000FEF7A6F9002104F10800FEF771F90146BE
:10AA400008B1044810BD04F10C00FEF769F90028B4
:10AA5000F8D0F6E70E7000F0F8B5044616460F463B
:10AA6000D4F08CFEA388E2889BB29A42054605D8B2
:10AA700000233360D4F07DFE1748F8BD14222388EC
:10AA800007F1100C9BB202FB03433A46083317460A
:10AA900003CF6745186059603A4603F10803F6D1C1
:10AAA000142238681860238828469BB202FB0343AF
:10AAB000083333602388E2889BB20133B3FBF2F1A1
:10AAC00002FB11339BB22380A38801339BB2A38086
:10AAD000D4F04FFE0020D0E70A7000F090F8363036
:10AAE00053B9042103790A4A03F239135B01D150A7
:10AAF000022203685A617047022B07D10068816CFB
:10AB000011F0020118BF062187F0D0BD704700BFC9
:10AB100000C0035090F836306BB9012203685A61C7
:10AB200002689369D907FCD504210379074AB93330
:10AB30005B01D1507047022B07D10068836C9B07E3
:10AB40004CBF0521092187F0B1BD704700C00350FB
:10AB500010B590F8363004466BB9042203685A6188
:10AB6000026893699907FCD523790C4AB9335B01D4
:10AB70001021995010BD022BFCD10068836CDB07BB
:10AB80004CBF0521062187F091FD237941F29442C3
:10AB90005B0103F1A04303F57033E9E700C0035004
:10ABA000012370B580F8303090F8363004460E46F8
:10ABB00086B0A3B905682435204687F065FC0D4BA7
:10ABC0000494039300230293736801930123009379
:10ABD00032682B466169E06886F0BBFE07E0022B15
:10ABE00002D105683C35E7E7002380F8303006B035
:10ABF00070BD00BF19B1000801232DE9F04180F8B4
:10AC0000313090F8363004460E4688B05BBB05689C
:10AC10003C35D4F0B3FD04F13C0807460DF11F01AB
:10AC20004046D1F0C3F840B99DF81F302BB14046E3
:10AC3000D1F08EF82046D4F0D1FD3846D4F099FDFD
:10AC4000204687F021FC0D4B0494039300230293CC
:10AC500073682A4601930123009333682169A06831
:10AC600086F05DFE07E0022B02D105684435D0E78F
:10AC7000002380F8313008B0BDE8F08181AC0008D5
:10AC80002DE9FF41D06A03A91446FFF73BFE0646B3
:10AC90002046D4F08CFD002501462346CDE9005521
:10ACA000184A04F13C00D4F0B8FE174B9E4221D064
:10ACB000039E3561B560D4F061FDD6F80C8007467F
:10ACC000B8F1000F04D0D6E9002329462046C0473A
:10ACD000E06A03A987F0F1FBE06A83889BB26BB15D
:10ACE00003A9FFF70FFE20460399FFF785FF3846BB
:10ACF000D4F03FFD012004B0BDE8F08184F831308C
:10AD0000F5E700BF49B30D080B7000F02DE9F041E5
:10AD100004461746FFF710FE88460646E8B9152098
:10AD200008F0C0FF0546E26A93889BB213B194F81D
:10AD30003230ABB194F83630BBB923689D6915F059
:10AD4000020527D0012384F834304744B8452068F1
:10AD500044D183699B06FCD545B33046BDE8F081FC
:10AD6000002DE1D0FEF780F8DDE7022B12D1236839
:10AD70009D6C15F002050DD0012384F83430474452
:10AD80004745206831D142F22002836C32EA030346
:10AD9000FBD1E1E72046FFF7DBFE012394F83650B4
:10ADA00084F83430002DD0D0022D1CD094F83630E9
:10ADB00003B3022BD1D12068816C11F0010118BFBF
:10ADC000092187F073FC42F29442102123795B0140
:10ADD00003F1A04303F570339950BEE718F8011B47
:10ADE00087F047FDB2E70025C9E718F8011B87F097
:10ADF00062FCC5E710212379044A03F239135B0191
:10AE0000D150082223685A61A7E700BF00C0035051
:10AE100010B5044680B190F832302BB987F01BFB97
:10AE200010B9A068FDF7E0FF002094F8323001333C
:10AE3000DBB284F8323010BD0048FCE7027000F04D
:10AE400010B50446A0B190F832309BB190F8323082
:10AE5000012B05D187F0FFFA10B9A068FDF7E4FFD8
:10AE6000002094F83230013BDBB284F8323010BD60
:10AE70000148FCE70148FAE7027000F0057000F0B5
:10AE800030B50025437F85B08DF8083090F821302B
:10AE9000044604228DF80930039303A9064B00955C
:10AEA00002A8FDF7B3FC4FF4007320462383A57678
:10AEB00087F05EFB05B030BDADA900082DE9F0417B
:10AEC00005468EB0734F06AE0C460FCF0FC697E8FF
:10AED0000F0086E80F00182200216846B9F0B9F883
:10AEE000002D00F0D58024B96B4E30460EB0BDE881
:10AEF000F081602200212846B9F0ABF8236828468B
:10AF00002B60022385F83630237C2B71FFF726FD5A
:10AF100006460028E9D1237F604A85F8353023684A
:10AF2000934200F0A7805E4A9342DDD14FF4801334
:10AF30005C495D4AC5E904230023696285F8313024
:10AF400085F83030D4E90912A9620B80A96A574804
:10AF50004B80A96A564F8B8085F83030EA621380A7
:10AF6000EA6A5380EA6A938085F8313085F8333095
:10AF700089F0E5F86B6A986889F0E1F81022237C83
:10AF8000284607EB4313C3F89424A17B237C227B40
:10AF900007EB431342EA0142C3F8AC24237CE17B74
:10AFA000627B253342EA014207EB43135A60237B5D
:10AFB0000121EB76A37BEB77637B2B77E37B85F833
:10AFC0002030637F6B77A37F85F82130E37FAB77F9
:10AFD00094F8203085F8223087F0D2F90646002810
:10AFE00083D1A36802260893638A8DF82560ADF8A3
:10AFF0002830A38ACDF834D0ADF82630A37D8DF863
:10B000002430A3690B930123ADF80630D4F0B6FBCE
:10B01000227F8046032A32D141F29441237C07EB00
:10B0200043135E50237C94F82000E17F07EB431329
:10B0300041EA004103F5A5531960217CA07F07EB8D
:10B04000411741F29C41637F43EA00437B508DF8F6
:10B05000002006238DF818302379206806A9A3B1B3
:10B0600087F032FB2846FFF7E1FC06464046D4F065
:10B0700080FB3AE74FF470230E490F4A5AE7022A41
:10B08000E7D12846FFF7FCFEE3E787F019FBE9E785
:10B090000A4E2AE724000E08037000F00000015B4E
:10B0A00000000A50941C0E0801001000401C0E08FD
:10B0B00000C00350A01C0E0801000F00027000F039
:10B0C000F0B587B005461646FFF736FC0446F0B9E2
:10B0D0000493104BCDE901166A46A86A01A90396AC
:10B0E0000593FFF7B9FC044688B995F8303073B979
:10B0F0002846FFF70FFD28460099FFF751FD95F808
:10B100003530032B03D028462C7687F031FA2046C1
:10B1100007B0F0BD017000F0F7B5906A01A91446C0
:10B12000FFF7F0FB05462046D4F058FB3A4B9D4212
:10B1300031D094F83620019D002A3BD121688B6CD8
:10B1400013F400732AD0AA604FF40072334B2B61C2
:10B15000236803F500539A64D4F010FBEF680646A9
:10B1600037B16A68AB682046D31A29692A68B8479C
:10B17000A06A01A987F0A1F9A06A8588ADB2002D67
:10B180003AD001A9FFF7BEFB20460199FFF708FD61
:10B190003046D4F0EEFA012003B0F0BD8A6CD10540
:10B1A00026D51F4AAB602A6123684FF4807203F5ED
:10B1B0000053D0E7022A1BD12268D36C13F400732A
:10B1C0000AD0164B4FF400722B610023AB6023684A
:10B1D00003F50053DA64BFE7D26CD20508D5104AF4
:10B1E000AB602A6123684FF4807203F50053F1E7E6
:10B1F00000232B61AB60AFE701232046237687F065
:10B20000B7F994F8353084F83050032BC0D020467D
:10B21000FFF764FCBCE700BF0B7000F00D7000F09E
:10B220000C7000F0F0B587B004461646FFF784FBBB
:10B23000054658BB0493194BCDE90116059394F8C4
:10B24000363003962BBB23689B6903F0020313B9C6
:10B250002046FFF77DFC6A46E06A01A9FFF7FCFB88
:10B26000054698B994F8313083B9D4F087FAE36A87
:10B2700006469B889BB233B120460099FFF7BCFC81
:10B28000012384F834303046D4F073FA284607B0EE
:10B29000F0BD022BDCD123689B6CD6E7017000F077
:10B2A000044BD3F88420D206FBD4D3F88400C0F337
:10B2B000811070470040005038B5174B0546D3F851
:10B2C00028310C4603F00703013B052B20D8DFE8AB
:10B2D00003F003131B0F0B17CFF056FF052305B127
:10B2E000286004B1236038BDCFF04EFF0623F6E797
:10B2F000CFF094FF0723F2E7CFF086FF0323EEE7BA
:10B30000CFF082FF0423EAE7CFF07AFF0223E6E7DB
:10B3100000231846E3E700BF00800050002337B544
:10B320000193164B0546D3F820320C4603F0070371
:10B33000042B21D8DFE803F0030B11161B000123B7
:10B340000DB1019A2A6004B1236003B030BD002121
:10B3500001A8FFF7B1FF1223F2E7CFF05FFF072349
:10B360000190EDE7D4F01DFA0A230190E8E7CFF051
:10B370009DFF09230190E3E70023E1E700800050EF
:10B3800038B5104B0546D3F880300C4603F0030364
:10B39000022B0BD0032B0DD0012B0FD1CFF0FAFED7
:10B3A0000E2305B1286004B1236038BDCFF036FF0D
:10B3B0000723F6E7CFF0E8FE0623F2E7002318465E
:10B3C000EFE700BF0080005038B5104B0546D3F8BA
:10B3D00000310C4603F00303022B0BD0032B0DD0DE
:10B3E000012B0FD1CFF010FF032305B1286004B16A
:10B3F000236038BDCFF05AFF0923F6E7CFF00AFFEC
:10B400000823F2E701230020EFE700BF008000508F
:10B4100038B5184B0546D3F820010C4600F007005C
:10B42000062823D8DFE800F0040A0E16121A1E00C0
:10B43000012305B1286004B1236038BDCFF0A4FE1C
:10B440000523F6E7CFF0E0FE0323F2E7CFF0E6FEB8
:10B450000723EEE7CFF0D4FE0223EAE7CFF094FE15
:10B460000623E6E7CFF0D0FE0423E2E700231846E8
:10B47000DFE700BF0080005038B5104B0546D3F819
:10B4800040310C4603F00303022B0BD0032B0DD0ED
:10B49000012B0FD1D4F085F90A2305B1286004B13E
:10B4A000236038BDCFF002FF0923F6E7D4F07CF922
:10B4B0000C23F2E701230020EFE700BF00800050DB
:10B4C000002337B50193164B0546D3F860320C467E
:10B4D00003F00703013B032B1FD8DFE803F0020E44
:10B4E0001914002101A8FFF793FF10230DB1019A51
:10B4F0002A6004B1236003B030BD002101A8FFF72A
:10B50000BBFF1123F2E7CFF089FE07230190EDE79F
:10B51000CFF076FE02230190E8E70023E6E700BFC4
:10B5200000800050002337B50193164B0546D3F831
:10B5300094320C4603F00703013B032B1FD8DFE8CE
:10B5400003F0020E1914002101A8FFF761FF102378
:10B550000DB1019A2A6004B1236003B030BD00210F
:10B5600001A8FFF789FF1123F2E7CFF057FE072369
:10B570000190EDE7CFF044FE02230190E8E70023BD
:10B58000E6E700BF0080005038B5104B0546D3F801
:10B5900060310C4603F00303022B0BD0032B0DD0BC
:10B5A000012B0FD1D4F0FDF80A2305B1286004B1B6
:10B5B000236038BDCFF07AFE0923F6E7D4F0F4F823
:10B5C0000C23F2E701230020EFE700BF00800050CA
:10B5D0002E4B98424AD022D82D4B984240D014D8B6
:10B5E0002C4B984239D00AD82B4B984232D02B4B57
:10B5F00098422FD02A4B98422CD000207047294BDC
:10B600009842FAD1284B186F7047284B98422AD09D
:10B61000274B9842F1D1244BD3F880007047254B3B
:10B6200098422BD009D8244B984223D0234B9842E0
:10B63000E3D11D4BD3F88C007047214B984221D0A9
:10B6400003F5740303F510539842D6D1164BD3F883
:10B6500098007047144B986D7047134B586E7047A5
:10B66000114B586F7047104B986F70470E4BD3F8C3
:10B67000840070470C4BD3F8880070470A4BD3F80E
:10B6800090007047084BD3F8940070470048E801D9
:10B690000024F400C0CF6A0080841E0000093D0031
:10B6A00040420F00405DC6000080E00FC0EA21016B
:10B6B00080BA8C01007E560380D54302006CDC0208
:10B6C0000090D00373B50D460021114B0191D3F8C2
:10B6D0008041064604F00304022C13D0032C0CD046
:10B6E000012C13D101A8FFF793FE10240EB1019B8A
:10B6F000336005B12C6002B070BDCFF08FFD072420
:10B700000190F3E7CFF07CFD0190EFE70C46EDE709
:10B710000080005038B5104B0546D3F840320C4637
:10B7200003F00303022B0BD0032B0DD0012B0FD101
:10B73000D4F037F80A2305B1286004B1236038BD7E
:10B74000CFF0B4FD0923F6E7D4F02EF80C23F2E78E
:10B7500001230020EFE700BF0080005038B5144BF4
:10B760000546D3F800020C4600F0070004281BD859
:10B77000DFE800F003090D111500012305B1286071
:10B7800004B1236038BDD4F00CF80A23F6E7CFF0FB
:10B790008DFD0923F2E7D4F007F80C23EEE7CFF094
:10B7A00019FD0F23800AE9E700231846E6E700BFEA
:10B7B0000080005038B5144B0546D3F808020C46FB
:10B7C00000F0070004281BD8DFE800F003090D1182
:10B7D0001500012305B1286004B1236038BDD3F002
:10B7E000E0FF0A23F6E7CFF061FD0923F2E7D3F08B
:10B7F000DBFF0C23EEE7CFF0EDFC0F23800AE9E737
:10B8000000231846E6E700BF00800050B0F5207F17
:10B810001FD009D8B0F5007F15D003D868B1B0F5B6
:10B82000C07F0AD000200CE0B0F5607FFAD10B4B4E
:10B83000D3F88000C0F3011003E0084B186FC0F389
:10B84000033001307047054BD3F89000C0F304601B
:10B85000F7E7024B186FC0F38020F2E7008000503A
:10B8600002464FF48030104B10B598660020FFF769
:10B87000CDFF504341F671320C4BDC69DA635A68F4
:10B8800004F4803422F4401259B90949884294BF23
:10B8900000200120000502435A600CB10022DA6347
:10B8A00010BD0449F2E700BF0090005000000350B3
:10B8B000005A6202002D3101430905D0012B0CD042
:10B8C000022B084B18BF002300F01F0039B103F50D
:10B8D0008053012282401A607047034BF4E703F55E
:10B8E0000053F6E768800050648000501FB50021C7
:10B8F000B0F5807F0446CDE9001100F02B8100F205
:10B9000094805D2800F28C801F2805D8002840F024
:10B910008980CFF05FFCF7E0A0F120043D2C00F21D
:10B92000818001A353F824F013B9000817BB000865
:10B9300013B9000817BB000837BB000837BB000865
:10B9400037BB000837BB000837BB000817BB00082F
:10B950004BBB00085BBA000895BA000877BB00082B
:10B960005BBA000817BB000817BB000817BB00082C
:10B9700025BA000825BA000825BA000825BA00082B
:10B9800025BA000825BA000825BA000825BA00081B
:10B9900017BB000817BB000817BB0008BBBA00089C
:10B9A0008BBB000817BB000825BA000825BA0008A1
:10B9B00025BA000825BA000825BA000825BA0008EB
:10B9C00025BA000825BA000825BA000825BA0008DB
:10B9D00025BA000825BA000825BA000837BB0008B8
:10B9E00013B9000813B9000813B9000881BB000897
:10B9F0005BBA00085BBA000895BB0008D9BA00081A
:10BA000085BA000841BB000825BA000825BA00081D
:10BA100025BA000825BA000825BA0008FBBA0008B4
:10BA200080286FD0009804B010BDB0F5D06F00F042
:10BA3000A28034D8B0F5607F78D019D8B0F5007FF7
:10BA400064D004D8B0F5C07F3FF463AFEAE7B0F547
:10BA5000207F60D0B0F5407FE4D1CFF0BBFB024641
:10BA60004FF42070FFF7D2FEB2FBF0F252085BE019
:10BA7000B0F5B06F69D00AD8B0F5806F5BD0B0F583
:10BA8000A06FCFD100216846FFF748FCCAE7B0F5A8
:10BA9000C06FC7D100216846FFF7EEFCC2E7B0F5E2
:10BAA000106F6DD00ED8B0F5086F78D0BAD8B0F559
:10BAB000E06F6AD0B0F5F06FB4D100216846FFF7AF
:10BAC00063FDAFE7B0F5406F3AD013D8B0F5206F03
:10BAD00060D0B0F5286FA5D10021334B0391D3F886
